:020000040000FA
:08000000803102288731E82F4E
:1000140008003234640080010131890B0D2800345A
:100024004001E5006108E7006008E6004101A6011F
:10003400A70130286630E3006308CE006208E400BC
:100044006408CF00650881314421803140014E08A5
:100054004101A60740014F084101A73D4001660840
:100064008400670885001200031D39283A281C28DB
:10007400410127084001E100410126084001E00058
:100084000800F2012030860000308700473FF0006E
:10009400F01F4D284E286F284001A009A109A2098C
:1000A400A309A409A509A609A709A00A031D6D2887
:1000B400A10A031D6D28A20A031D6D28A30A031DAE
:1000C4006D28A40A031D6D28A50A031D6D28A60A20
:1000D400031D6D28A70AF201F20A283086000030B9
:1000E4008700473FF000F01F782879289C284001BA
:1000F400A809A909AA09AB09AC09AD09AE09AF0958
:10010400A80A031D9828A90A031D9828AA0A031DF2
:100114009828AB0A031D9828AC0A031D9828AD0A39
:10012400031D9828AE0A031D9828AF0A0130F00079
:100134007008F20673308600003087000830F00043
:1001440000301E00F00BA3284001200821042204E3
:10015400230424042504260427040319B228B328FD
:100164000F29F101F10AC228A035A10DA20DA30D9A
:10017400A40DA50DA60DA70D0130F0007008F10720
:10018400A71FC528C628B628F335F40DF50DF60DBE
:10019400F70DF80DF90DFA0D27082F02031DEC28B1
:1001A40026082E02031DEC2825082D02031DEC2829
:1001B40024082C02031DEC2823082B02031DEC2821
:1001C40022082A02031DEC2821082902031DEC2819
:1001D40020082802031CEF28F02801292008A8027F
:1001E4002108A93B2208AA3B2308AB3B2408AC3BCB
:1001F4002508AD3B2608AE3B2708AF3B7314A73652
:10020400A60CA50CA40CA30CA20CA10CA00C0130F0
:10021400F102031D0E290F29C62872080319132998
:1002240014293229F309F409F509F609F709F8093B
:10023400F909FA09F30A031D3229F40A031D3229C4
:10024400F50A031D3229F60A031D3229F70A031D94
:100254003229F80A031D3229F90A031D3229FA0A40
:1002640073084001A0007408A1007508A200760874
:10027400A3007708A4007808A5007908A6007A08E6
:10028400A70008004001DF004E0886008701403FB8
:10029400D000413FD100500884005108850012006D
:1002A400253A031D562957294F2A4E0886008701EF
:1002B4000130810741310318810A4101A801A901D4
:1002C400AC01AD01FF30AA00FF30AB004001DD01FD
:1002D400DE01AD2941012C1440014E08860087013E
:1002E4000130810741310318810AAD294101AC1461
:1002F4006E2941012C156E294101AC156E2941016D
:100304002C166E290130DD000030DE00AD294E08C8
:1003140086008701403FD000413FD100500884004F
:10032400510885000008D200D3015308003A03198C
:100334009C2984295208203A03197E29033A031977
:100344008129083A03197B29063A03196C291D3AB5
:100354000319782984295D085E040319B229B32995
:10036400892941012C1CB729B829BC29FD30AC05C9
:10037400FF30AD0540014E0886008701403FD000A4
:10038400413FD10050088400510885001200643AAE
:100394000319CD29CE29DF294E0886008701403F65
:1003A400D000413FD100500884005108850012005C
:1003B400693A031DDE29DF291A2A4E0886008701BF
:1003C4000130810741310318810A4F0886008701F3
:1003D40001088400850102308107003FD000013FFD
:1003E400D1005008D5005108D600890D893B8909F0
:1003F400D700D800D900DA00DB00DC005508B000D3
:100404005608B1005708B2005808B3005908B400A0
:100414005A08B5005B08B6005C08B7005F08823173
:100424007322813140013108CF003008CE00722A96
:100434004E0886008701403FD000413FD10050085C
:100444008400510885001200253A031D2A2A2B2A0C
:10045400442A4E0886008701013081074131031880
:10046400810A2530F0000030F1005F08D000500808
:10047400F2008C31BD24813101304001CE000030C6
:10048400CF00722A4E08860087010130810741316E
:100494000318810ACE01CF01722A4E088600870113
:1004A400403FD000413FD1005008840051088500EE
:1004B4000008D200D3015208F0005308F1005F088D
:1004C400D4005408F2008C31BD24813140014E081F
:1004D400860087010130810741310318810A3E2AD1
:1004E40008004001BD003008C4003108C5003208CE
:1004F400C6003308C7003408C8003508C9003608E8
:10050400CA003708CB004430860000308700473FDC
:10051400B800B81B8E2A902A0130912A003040017D
:10052400B900BA013908C2003A08C30042084304BA
:1005340003199D2A9E2ABC2AC409C509C609C709EC
:10054400C809C909CA09CB09C40A031DBC2AC50ABA
:10055400031DBC2AC60A031DBC2AC70A031DBC2AE4
:10056400C80A031DBC2AC90A031DBC2ACA0A031DE2
:10057400BC2ACB0A4101AB1BC02AC12AC52AFD30C3
:10058400AC05FF30AD052B08803A4001B80080303F
:100594003802031DD02A013041012A020318D32A4C
:1005A400D42ADA2A01304001BE000030BF00E22A1A
:1005B40041012B084001BF0041012A084001BE004F
:1005C400410129084001C100410128084001C0003F
:1005D40042084304031DEF2AF02AF52A41012C1D89
:1005E400F42AF52AFA2AFF304001C007FF30C13D42
:1005F4001F304001CC000030CD004201BF016B2B05
:10060400FF304001CC07FF30CD3D0A30A000A101EE
:10061400A201A301A401A501A601A7014408A80001
:100624004508A9004608AA004708AB004808AC00E2
:100634004908AD004A08AE004B08AF008F311627B9
:10064400823140012108F4002008F3008B31872314
:1006540082317308303E4001B8004C08203E8600C9
:100664000130870038088100FF30BE07FF30BF3DEE
:10067400FF30C007FF30C13D0A30A000A101A20134
:10068400A301A401A501A601A7014408A8004508E7
:10069400A9004608AA004708AB004808AC0049086E
:1006A400AD004A08AE004B08AF00803143208231D0
:1006B40040012008C4002108C5002208C600230800
:1006C400C7002408C8002508C9002608CA0027084E
:1006D400CB0040014D08803AB80080303802031D39
:1006E400752B01304C02031C782B792BA62B40016F
:1006F4004408450446044704480449044A044B0496
:10070400031D852B862B022B3F08803AB8008030CE
:100714003802031D8F2B01303E020318922B932BBA
:10072400022B40014108803AB80080303802031D92
:100734009D2B01304002031CA02BA12BA62B4101B1
:10074400AC18A52BA62B022B400142084304031D21
:10075400AC2BAD2BB22B41012C1DB12BB22BCF2BCB
:10076400FF304001CC07FF30CD3D42084304031D58
:10077400BC2BBD2BC22B2B30BB000030BC00C62BC6
:100784002D30BB000030BC003B08B8004C08203EB4
:100794008600013087003808810040014C08203E63
:1007A400B8003808A4004108A6004008A5003D0888
:1007B4008D310C25823140012508B1002408B00098
:1007C400080000304101E4000030E5000030E6009C
:1007D400E701E801E90140010E19F12BF22B902DFC
:1007E40002304001ED004530EC00A930890BF82BB4
:1007F400EC0BF82BED0BF82B003240010E1D032CF3
:10080400042C902D410167080319092C0B2C01308D
:100814000C2C00304001EC006C084101E700670833
:100824000319152C162C412C01308D31F1258331FF
:100834005F304001E8008830E900C9308B31DC23A7
:100844008331F301C9304001EC006C08F40001303D
:100854008C312924833102304001E8008830E900DA
:10086400C9308B31DC238331F301C9304001EC0002
:100874006C08F40002308C3129248331902DA3308C
:100884004001EC005530890B452CEC0B452C902D88
:1008940001304101E407003003180130E50700305E
:1008A40003180130E607A330640687300319650690
:1008B4006604031D5E2C5F2C832D00304101E4008F
:1008C4000030E5000030E60001308D31F125833140
:1008D4007E304001E8008830E900C9308B31DC23E8
:1008E4008331F301C9304001EC006C08F40001309D
:1008F4008C312924833102304001E8008830E9003A
:10090400C9308B31DC238331F301C9304001EC0061
:100914006C08F40002308C31292483310330400107
:10092400ED008A30EC005530890B962CEC0B962C9C
:10093400ED0B962C003240010E19A12CA22C6D2D2A
:1009440002304001ED004530EC00A930890BA82CA1
:10095400EC0BA82CED0BA82C003240010E1DB32C7F
:10096400B42C6D2D41016703031DB92CBA2C012D44
:100974006A0A031DBE2CBF2CC62CFF304001EC00BC
:100984006C084101EA00CD2C6A080A3E4001EC00E3
:100994006C084101EA0001308D31F1258331313099
:1009A4004001E8008830E900C9308B31DC23833111
:1009B400F301C9304001EC006C08F40001308C31C3
:1009C400292483313F304001E8008830E9004101A7
:1009D4006A084001EC00ED016C08EA006D08EB00C8
:1009E400C9308B31DC238331F301C9304001EC0081
:1009F4006C08F40002308C31292483316D2D6A088F
:100A0400031D052D062D082DEA010F2D6A08F63E5B
:100A14004001EC006C084101EA006A08031D132D33
:100A2400142D1A2D32304001EC006C084101EA000B
:100A340001308D31F125833131304001E8008830B7
:100A4400E900C9308B31DC238331F301C930400123
:100A5400EC006C08F40001308C31292483313F30E0
:100A64004001E8008830E90041016A084001EC00D7
:100A7400ED016C08EA006D08EB00C9308B31DC2312
:100A84008331F301C9304001EC006C08F4000230FA
:100A94008C31292483316D2D01304101E40700306C
:100AA40003180130E507003003180130E60763300E
:100AB4006406AE30031965066604031D622D632DBA
:100AC4006D2D01304101E8000030E90001308D3125
:100AD400F1258331722D40010E1D712D722D4E2D85
:100AE40000304101E4000030E5000030E600680316
:100AF4006904031D7E2D7F2D9D2C0230E8000030FB
:100B0400E9000230410168066904031D8A2D8B2D1A
:100B1400902D0330E8000030E900952D40010E1DB2
:100B2400942D952D4A2C00304101E4000030E5005D
:100B34000030E600033068066904031DA22DA32DCE
:100B4400ED2B01308D31F125833122304001E80055
:100B54008830E900C9308B31DC238331F301C9309B
:100B64004001EC006C08F40001308C3129248331FD
:100B74004001181502304001ED004530EC00A93069
:100B8400890BC22DEC0BC22DED0BC22D00320800D7
:100B94008B31BB238531400198108D31652585311A
:100BA40001308D31F12585310C308D31F1258531C0
:100BB400C3304001EE00CD30890BDE2DEE0BDE2D6F
:100BC40002304001EE006E08F3006F30F40088300C
:100BD400F50002308C3172248531A3304001EE00DF
:100BE4005530890BF32DEE0BF32D40018D1AFB2D9F
:100BF400FC2D012E01304101B0070030B13D12300F
:100C04004001E8008830E900410131084001EB006F
:100C1400410130084001EA00B5308B31DC238531D5
:100C240002304001EE006E08F300B530EF006F08AB
:100C3400F40001308C312924853155304001E8001D
:100C44008830E90041016A084001EE00EF016E08B6
:100C5400EA006F08EB00B5308B31DC238531F301FA
:100C6400F30AB5304001EE006E08F40002308C3116
:100C74002924853121304001EE007630890B402E45
:100C8400EE0B402E000040018D1B492E4A2E4F2EA4
:100C9400FF304101B007FF30B13D12304001E800A0
:100CA4008830E900410131084001EB00410130087E
:100CB4004001EA00B5308B31DC238531023040013C
:100CC400EE006E08F300B530EF006F08F400013059
:100CD4008C312924853155304001E8008830E90001
:100CE40041016A084001EE00EF016E08EA006F0856
:100CF400EB00B5308B31DC238531F301F30AB530D9
:100D04004001EE006E08F40002308C312924853154
:100D140021304001EE007630890B8E2EEE0B8E2EA4
:100D2400000040010E19972E982EF62EA330400194
:100D3400EE005530890B9C2EEE0B9C2E40010E1DAF
:100D4400A42EA52EF62E7730E8008830E900410164
:100D540031084001EB00410130084001EA00B530A0
:100D64008B31DC238531F301B5304001EE006E0890
:100D7400F40001308C3129248531F62E01304101F3
:100D8400A007003003180130A10700300318013018
:100D9400A207B83020060B30031921062204031DD4
:100DA400D42ED52EF62E00304101A0000030A10033
:100DB4000030A20001308D31F125853167304001CA
:100DC400E8008830E900B5308B31DC238531F3014C
:100DD400B5304001EE006E08F40001308C31292456
:100DE40085318331E323853140010E1DFA2EFB2E1C
:100DF400C02E00304101A0000030A1000030A2004C
:100E040040010C1A062F072F0F2F07304001EE0068
:100E14007D30890B0B2FEE0B0B2F40010C1E132F73
:100E2400142F5C2F01304101B0070030B13D123066
:100E34004001E8008830E900410131084001EB003D
:100E4400410130084001EA00B5308B31DC238531A3
:100E540002304001EE006E08F300B530EF006F0879
:100E6400F40001308C31292485314A304001E800F6
:100E74008830E90041016A084001EE00EF016E0884
:100E8400EA006F08EB00B5308B31DC238531F301C8
:100E9400F30AB5304001EE006E08F40002308C31E4
:100EA40029248531A3304001EE005530890B582F99
:100EB400EE0B582F40018C1E602F612F662FFF30E0
:100EC4004101B007FF30B13D12304001E8008830E5
:100ED400E900410131084001EB00410130084001C3
:100EE400EA00B5308B31DC23853102304001EE005D
:100EF4006E08F300B530EF006F08F40001308C3158
:100F0400292485314A304001E8008830E900410154
:100F14006A084001EE00EF016E08EA006F08EB007A
:100F2400B5308B31DC238531F301F30AB530400150
:100F3400EE006E08F40002308C3129248531A33090
:100F44004001EE005530890BA52FEE0BA52F410172
:100F54003108803A803C031DB12F30086A0203181F
:100F6400B42FB52FB82F40011A14BA2F40011A100C
:100F740041013108803A4001EE0080306E02031DC9
:100F8400C62F41016A0830020318C92FCA2FCD2F7A
:100F940040019814CF2F4001981041016A08400184
:100FA400EE00EF014101310840016F06031DDE2F01
:100FB4004101300840016E06031DE12FE22FE42FAA
:100FC4009A14F72D9A10F72D8031022841018031AF
:100FD4000B208731EA00A0308400003085003D30CA
:100FE40080310C208731203084000130850020308E
:100FF40080310C20873140018531CA2DB634033449
:101004004C3449344D344934543445342034503408
:101014004534523453344F344E3441345334003411
:101024004E3475346D3450346534723473346F34E3
:101034006E346134733420342534303464340034F1
:101044004D346F3464346F34203463346F346E340D
:101054007434613464346F3472342034003443346F
:101064006F346E3466346934673475347234613481
:10107400633469346F346E3400344D3461347834FD
:1010840069346D346F343A34203425346434003494
:101094004C3449344D3449345434453420342534A3
:1010A4003034643400344C3449344D344934543489
:1010B4004534203425346434003441344A345534BE
:1010C4005334543445342034003441344A34553490
:1010D4005334543441345234003442347534653416
:1010E4006E34443469346134003443344F344E3400
:1010F400543441345234003445344C3449344A3441
:04110400413400343E
:10170E007408803AF50080307502031D902B01306D
:10171E0073020318932B942BA02B7309F5007409F5
:10172E00F600F50A0319F60A7508F3007608F400B8
:10173E00A02B0800F4007408F2007208F300AB2B23
:10174E000130F2007208F407740886000130870039
:10175E000108031DB32BB42BA72B73087402F000E2
:10176E00F101F01BF10308004001980199019A0163
:10177E0030309200A0309300043094007E01CE01F0
:10178E00C301B8010430CF000430BA00C501D00146
:10179E003730BB00FF30C600FF30D1003F30BC00F9
:1017AE00FF30C700FF30D20008004101E3006A306D
:1017BE00FD007D08DD006308FD007D08DE00DF0111
:1017CE00E001E101E20140016908E1006808E00082
:1017DE00DD30FD007D08E200DE30803112208B31DD
:1017EE0041015F086307FD007D08860087018101C6
:1017FE0008004001A300A101A201182C2008F90045
:10180E00FA017908F0007A08F1007808FB007B08ED
:10181E00F2008C31BD248C3101304001A107003023
:10182E00A23D21082307F9007908860001308700C0
:10183E000108FA007A08A0002008031D272C282C86
:10184E00052C0800F700432C7308803EF500750840
:10185E00F800592C7308C03EF5007508F800592C95
:10186E007308943EF5007508F800592C7308D43EA1
:10187E00F5007508F800592C7708F500F601760882
:10188E00003A03194B2C592C7508013A03192B2CCD
:10189E00033A0319312C013A0319372C073A03196D
:1018AE003D2C592C78088D31F1258C31692C74081A
:1018BE008600870101088E3183268C310130F500B8
:1018CE007508F4077408860087010108031D702C43
:1018DE00712C5E2C0800F8008C2C7308803EF600EC
:1018EE007608F900A22C7308C03EF6007608F900BF
:1018FE00A22C7308943EF6007608F900A22C730809
:10190E00D43EF6007608F900A22C7808F600F7010E
:10191E007708003A0319942CA22C7608013A031981
:10192E00742C033A03197A2C013A0319802C073AC6
:10193E000319862CA22C79088D31F1258C31B32C0C
:10194E00740884007508850000088E3183268C315A
:10195E000130F4070030F53D7408840075088500E9
:10196E001200031DBB2CBC2CA72C080072080319F7
:10197E00C12CC22CC72C7208031DC62CC72CCC2C14
:10198E00700880310A208C310B2D7208033E8600C0
:10199E008701160001040319D52CD62CF32C7208DE
:1019AE00033E86008701403FF300413FF400720A78
:1019BE0086008701403FF500413FF6007608803AE9
:1019CE00F7007408803A7702031DEF2C7308750236
:1019DE000318F22CF32C0B2D7008F30072088600FE
:1019EE008701720A8400850100080107F40074085B
:1019FE008600870173088100720A86008701013014
:101A0E00810741310318810A08004001AB004101F2
:101A1E002C1C122D132D1C2D40012B08FC007C08B4
:101A2E00F80024088C3100248D314001A61B202D96
:101A3E00212D262D2608AA002508A900282DA9014A
:101A4E00AA01A701A8013C2D2030F0000030F100C2
:101A5E0040012B08FC007C08F2008C31BD248D3136
:101A6E0001304001A7070030A83D2808803AFC004D
:101A7E002A08803A7C02031D462D29082702031CE2
:101A8E00492D4A2D2B2D41012C184E2D4F2D582D01
:101A9E0040012B08FC007C08F80024088C3100243F
:101AAE008D31400124088B31A1238D31400129084D
:101ABE007007A4002A08713DA50008004001941388
:101ACE00141394121412131313128E130E138E1268
:101ADE000E120D130D12C43000320032890B732D0D
:101AEE0000320000C43000320032890B7A2D0032F1
:101AFE000000C43000320032890B812D003200000C
:101B0E00C43000320032890B882D00320000C43000
:101B1E0000320032890B8F2D00320000C4300032AB
:101B2E000032890B962D00320000F401F40A4001B8
:101B3E008E130E138E160E160D130D128E130E130C
:101B4E008E160E160D170D12000040018E130E1379
:101B5E008E160E160D130D12C43000320032890B84
:101B6E00B42D003200000130F3007308F407043086
:101B7E007402031CC32DC42D9E2D40018E130E1313
:101B8E008E160E120D130D128E130E138E160E12BE
:101B9E000D170D12000040018E130E138E160E122D
:101BAE000D130D12C43000320032890BDA2D0032C3
:101BBE00000028308D31F1258D3110308D31F12519
:101BCE008D3101308D31F1258D310F308D31F12573
:101BDE008D310800F20040010D130D127208F00055
:101BEE000730F036890BF82D70080139F100F10C31
:101BFE00F10C0E0871067F3971068E007208F00026
:101C0E000630F036890B082E70080139F100F10EFE
:101C1E00F10DF10D0E087106BF3971068E007208B6
:101C2E00F0000530F036890B192E70080139F100DD
:101C3E00F10EF10D0E087106DF3971068E00720875
:101C4E00F0000430F036890B292E70080139F100AE
:101C5E00F10E0E087106EF3971068E000330890BF6
:101C6E00362E000040010D17000040010D137208C2
:101C7E00F0000330F036890B412E70080139F10067
:101C8E00F10CF10C0E0871067F3971068E00720888
:101C9E00F0000230F036890B512E70080139F10038
:101CAE00F10EF10DF10D0E087106BF3971068E00A1
:101CBE0072360139F000F00EF00D0E087006DF39A5
:101CCE0070068E0072080139F000F00E0E087006D4
:101CDE00EF3970068E000330890B732E0000400121
:101CEE000D17000040010D13C43000320032890B75
:101CFE007C2E003200000800F20040010D130D167C
:101D0E007208F0000730F036890B8A2E7008013900
:101D1E00F100F10CF10C0E0871067F3971068E0080
:101D2E007208F0000630F036890B9A2E70080139D1
:101D3E00F100F10EF10DF10D0E087106BF397106AD
:101D4E008E007208F0000530F036890BAB2E70084D
:101D5E000139F100F10EF10D0E087106DF39710631
:101D6E008E007208F0000430F036890BBB2E70081E
:101D7E000139F100F10E0E087106EF3971068E0071
:101D8E000330890BC82E000040010D1700004001E2
:101D9E000D137208F0000330F036890BD32E700845
:101DAE000139F100F10CF10C0E0871067F39710644
:101DBE008E007208F0000230F036890BE32E7008A8
:101DCE000139F100F10EF10DF10D0E087106BF395A
:101DDE0071068E0072360139F000F00EF00D0E080D
:101DEE007006DF3970068E0072080139F000F00EB1
:101DFE000E087006EF3970068E000330890B052F22
:101E0E00000040010D17000040010D130000C4300A
:101E1E0000320032890B0F2F003200000800F20151
:101E2E002830860000308700473FF000F01F202F3B
:101E3E00212F422F4001A809A909AA09AB09AC0913
:101E4E00AD09AE09AF09A80A031D402FA90A031D4B
:101E5E00402FAA0A031D402FAB0A031D402FAC0AC8
:101E6E00031D402FAD0A031D402FAE0A031D402F48
:101E7E00AF0AF201F20A2030860000308700473F99
:101E8E00F000F01F4B2F4C2F6B2F4001A009A10922
:101E9E00A209A309A409A509A609A709A00A031D59
:101EAE006B2FA10A031D6B2FA20A031D6B2FA30A12
:101EBE00031D6B2FA40A031D6B2FA50A031D6B2F89
:101ECE00A60A031D6B2FA70A400120082104220435
:101EDE00230424042504260427040319772F782FBE
:101EEE00CB2FF101F10A872FA035A10DA20DA30D65
:101EFE00A40DA50DA60DA70D0130F0007008F10779
:101F0E00A71F8A2F8B2F7B2F27082F02031DA92F88
:101F1E0026082E02031DA92F25082D02031DA92F09
:101F2E0024082C02031DA92F23082B02031DA92F01
:101F3E0022082A02031DA92F21082902031DA92FF9
:101F4E0020082802031CAC2FAD2FBD2F2008A8029D
:101F5E002108A93B2208AA3B2308AB3B2408AC3B33
:101F6E002508AD3B2608AE3B2708AF3BA736A60C8F
:101F7E00A50CA40CA30CA20CA10CA00C0130F10218
:101F8E00031DCA2FCB2F8B2F72080319CF2FD02FE3
:101F9E00EE2FA809A909AA09AB09AC09AD09AE092A
:101FAE00AF09A80A031DEE2FA90A031DEE2FAA0AD8
:101FBE00031DEE2FAB0A031DEE2FAC0A031DEE2FF1
:101FCE00AD0A031DEE2FAE0A031DEE2FAF0A400120
:101FDE002808A0002908A1002A08A2002B08A300A7
:101FEE002C08A4002D08A5002E08A6002F08A70077
:021FFE000800D9
:020000040001F9
:04000E00ED3FE73F9C
:04001400FF3FFF3F6C
:00000001FF
